:020000040800F2
:1000000000500020F120000811040008130400082B
:100010001504000817040008190400080000000077
:100020000000000000000000000000001B040008A9
:100030001D040008000000001F040008210400083F
:100040003921000839210008392100083921000828
:100050003921000839210008392100083921000818
:100060003921000839210008392100083921000808
:1000700039210008392100083921000839210008F8
:1000800039210008392100083921000839210008E8
:1000900039210008392100083921000839210008D8
:1000A00039210008392100083921000839210008C8
:1000B00039210008392100083921000829040008E5
:1000C00039040008392100083921000839210008C5
:1000D0003921000839210008392100083921000898
:1000E00039210008392100083921000800000000EA
:1000F0000000000000000000000000000000000000
:0C01000000000000000000005FF808F1A3
:10010C000348044B834202D0034B03B1184770479A
:10011C000C0000200C0000200000000005480649DF
:10012C000B1AD90F01EBA301491002D0034B03B1F9
:10013C00184770470C0000200C0000200000000045
:10014C0010B5064C237843B9FFF7DAFF044B13B113
:10015C000448AFF300800123237010BD0C00002075
:10016C00000000003C21000808B5044B1BB10449F9
:10017C000448AFF30080BDE80840CFE70000000062
:10018C00100000203C21000870B50D4E0D4D761B63
:10019C00B61006D0002455F8043B01349847A6420B
:1001AC00F9D1094E094D01F0C3FF761BB61006D0EC
:1001BC00002455F8043B01349847A642F9D170BD90
:1001CC00802100088021000884210008802100087B
:1001DC00830730B548D0541E002A3FD00346CAB21C
:1001EC0001E0013C3AD303F8012B9D07F9D1032C14
:1001FC002DD9CDB245EA05250F2C45EA054536D952
:10020C00A4F1100222F00F0C03F1200EE6444FEA89
:10021C00121C03F1100242E9045542E90255103256
:10022C007245F8D10CF1010214F00C0F03EB021221
:10023C0004F00F0C13D0ACF1040323F003030433CC
:10024C00134442F8045B9342FBD10CF003042CB131
:10025C00CAB21C4403F8012B9C42FBD130BD64464E
:10026C001346002CF4D1F9E703461446BFE71A46AF
:10027C00A446E0E772B6FEE700B591B02822002153
:10028C0006A8FFF7A5FF00230193029303930493A1
:10029C000593012206924FF4803307930A920222AF
:1002AC000D920E934FF4E0130F9306A801F04CFA45
:1002BC0080B90F23019302210291002303934FF481
:1002CC0080620492059301A801F070FC20B911B072
:1002DC005DF804FBFFF7CEFFFFF7CCFF08B501F08C
:1002EC00F9F9FFF7C9FF00F00BF800F02BF8034801
:1002FC0000F074FB00B9FEE7FFF7BCFF28000020FC
:10030C0084B00F4B9A6942F020029A619A6902F00C
:10031C0020020192019A9A6942F004029A619A6948
:10032C0002F004020292029A9A6942F008029A615F
:10033C009B6903F008030393039B04B0704700BF51
:10034C000010024008B50B480B4B03600B4B43608D
:10035C00002383602422C2604FF480420261436117
:10036C008361C361036200F05BFA00B908BDFFF75B
:10037C0081FFFBE72800002000540040A08601000C
:10038C0010B586B00023029303930493059302687F
:10039C00194B9A4201D006B010BD184CA36943F01A
:1003AC000803A361A36903F008030093009BC02317
:1003BC000293122303930323059302A9104801F01F
:1003CC00C1FCE36943F40013E361E36903F4001334
:1003DC000193019B002211461F2001F027FE1F20D4
:1003EC0001F05CFE00221146202001F01FFE2020AF
:1003FC0001F054FECFE700BF005400400010024053
:10040C00000C0140FEE7FEE7FEE7FEE7FEE7704763
:10041C007047704708B501F06FF908BD08B5024880
:10042C0000F0FAFF08BD00BF2800002008B5024804
:10043C0001F0C2F808BD00BF2800002082B00E4BAE
:10044C009A6942F001029A619A6902F001020092E3
:10045C00009ADA6942F08052DA61DB6903F080536A
:10046C000193019B054A536823F0E06343F000734A
:10047C00536002B0704700BF001002400000014002
:10048C0003685A6912F0800F01D000221A6170477C
:10049C0090F83E30DBB2402B10D00369B3F5804F9F
:1004AC001BD0036D002B39D1436CC3F3C813026806
:1004BC0003F0060343F0F00313617047036D2BB98F
:1004CC00436C026803F0FE0313617047436C0268CF
:1004DC0043F00103DBB21361704790F83D30DBB29F
:1004EC00212B0FD0436C026843F00103DBB2136184
:1004FC00436B6BB19B6A5BB10268536843F4006356
:10050C0053607047436C026803F0FE031361EFE71E
:10051C00836B33B19B6A002BEED102E0036D012B90
:10052C0000D07047436CC3F3C813026803F0060392
:10053C0043F0F1031361F4E7436C0268DBB213611F
:10054C00436B3BB19B6A2BB10268536843F4006365
:10055C0053607047836B002BFBD09B6A002BF3D14D
:10056C00F7E710B48DB090F83E30DAB2C16A046B84
:10057C0090F83D30DBB2222B0AD000230B9303689A
:10058C005A690B929B690B930B9B0DB010BC704777
:10059C00036D0BB9402A17D0036D1BB90369B3F572
:1005AC00404F19D0438D9BB2002B25D10393036888
:1005BC005A6903929A690392039A1A6842F4007278
:1005CC001A6000230365E0E7019303685A690192FE
:1005DC009B690193019BD8E70023029303685A6936
:1005EC0002929A690292029A1A6842F480721A6014
:1005FC00036D01330365C8E7438D9BB2012B25D0F6
:10060C00438D9BB2022B7BD00268136843F480634A
:10061C00136003685A6812F4006F0ED011F5803F16
:10062C0007D0012905D0082903D0102901D0202991
:10063C0003D15A6842F480525A6000230A9303682B
:10064C005A690A929B690A930A9BBAE711F5803F93
:10065C0011D0082934D0202932D0122C2ED00429C4
:10066C0040D002293ED010293CD00268136823F4F4
:10067C00806313603BE00268136823F480631360AB
:10068C0003685A6812F4006F0CD01A6822F4806266
:10069C001A600023049303685A6904929B690493BB
:1006AC00049B8EE7002205925A6905929A6905927D
:1006BC00059A1A6842F400721A6082E70129CED0BA
:1006CC000268136823F480631360002307930368A4
:1006DC005A6907929A690792079A1A6842F400724B
:1006EC001A606EE70268136843F48063136000239A
:1006FC00069303685A6906929B690693069B60E70A
:10070C00042915D0022913D0102911D002681368BE
:10071C0043F4006313600023089303685A6908923A
:10072C009A690892089A1A6822F480621A600CE09E
:10073C000268136843F48063136000230993036811
:10074C005A6909929B690993099B03685A6812F4C8
:10075C00006F3FF436AF11F5803F08D0012906D069
:10076C00082904D0102902D020297FF42AAF5A6816
:10077C0042F480525A6024E7438D9BB25BB1426ACB
:10078C00036812781A61436A01334362438D9BB24A
:10079C00013B9BB243857047438D9BB25BB10368B1
:1007AC001A69436A1A70436A01334362438D9BB2E0
:1007BC00013B9BB24385704782B0002301930E4BE3
:1007CC001B68DB080D4AA2FB03231B0A03EB830304
:1007DC000193019B013B0193019B33B103681B689F
:1007EC0013F4007FF5D1002004E0036C43F02003E8
:1007FC000364012002B070470800002089B5F8148A
:10080C00C36AB3F52A0F04D0C36AB3F12A4F03D0DD
:10081C0070470123C36270470823C362F8E70000E6
:10082C00002800F0CC8070B5044690F83D30002BC9
:10083C0077D0242384F83D302268136823F0010319
:10084C0013602268136843F4004313602268136832
:10085C0023F40043136001F065FA62685A4B9A4224
:10086C0064D85A4B98428CBF00230123002B40F0D4
:10087C00A8805749A1FB00318B0C25686A6822F0CF
:10088C003F0242EA91426A6021680A6A22F03F0202
:10089C0066684D4DAE424FD8013313430B6221684D
:1008AC00CA6922F44F4222F0FF026668464B9E4210
:1008BC004CD8431E7600B3FBF6F3013340F6FC70C4
:1008CC00034278D0C3F30B031343CB6121680B684D
:1008DC0023F0C003E269206A024313430B602168D2
:1008EC008B6823F4034323F0FF032269E06802437F
:1008FC0013438B602168CB6823F0FF036269A06906
:10090C0002431343CB602268136843F00103136066
:10091C0000202064202384F83D30206384F83E00BE
:10092C0070BD80F83C30FFF72BFD82E7294B9842D5
:10093C008CBF0023012399E74FF4967505FB03F355
:10094C00254DA5FB03539B090133A6E7A368BBB94F
:10095C00451E06EB460CB5FBFCF50135C5F30B0546
:10096C00B5FA85F56D0945BBC3B9013806EB4603ED
:10097C00B0FBF3F30133C3F30B0343F40043A3E7DE
:10098C00451E06EB860C0CEB8C0CB5FBFCF501350F
:10099C00C5F30B05B5FA85F56D09E4E7013806EBEF
:1009AC00860303EB8303B0FBF3F30133C3F30B03B5
:1009BC0043F4404388E7042386E7012384E70120BE
:1009CC0070470120ACE700BFA08601007F841E00A9
:1009DC0083DE1B43FF083D00D34D621090F83D3081
:1009EC00DBB2202B01D002207047282380F83D3049
:1009FC0003681A6812F0010F03D11A6842F0010261
:100A0C001A600268136843F48063136002685368C9
:100A1C0043F4407353600020704770477047704731
:100A2C0008B590F83D30DAB2438D9BB283B1416A80
:100A3C00036809781961436A01334362438D9BB2A1
:100A4C00013B9BB24385438D9BB20BB9292A00D045
:100A5C0008BD0268536823F4806353602123036349
:100A6C00282380F83D30FFF7DAFFF1E7704708B52F
:100A7C0090F83D30DAB2438D9BB283B103681969AB
:100A8C00436A1970436A01334362438D9BB2013B45
:100A9C009BB24385438D9BB20BB92A2A00D008BD6B
:100AAC000268536823F48063536022230363282372
:100ABC0080F83D30FFF7DAFFF1E7704700B583B0FF
:100ACC0090F83D3003F02803282B0CD00023019321
:100ADC0002685169019192690192019A80F83C3047
:100AEC0003B05DF804FB0268536823F48063536021
:100AFC0011F0040F0BD0002311F0800F09D1828963
:100B0C00002180F83C101946FFF7D7FFE8E70123D6
:100B1C00F2E7028BF4E7704710B5044690F83D30CD
:100B2C00DBB2C26A082A01D0202A01D1282B06D0B8
:100B3C00212B1FD023686FF480625A6110BD1D4BAE
:100B4C00E3622268536823F4E063536023686FF414
:100B5C0080625A612268136823F480631360002357
:100B6C002363202284F83D2084F83E302046FFF792
:100B7C00D2FFE3E70F4BE36221232363202384F8A6
:100B8C003D30002384F83E302268536823F4E06340
:100B9C00536023686FF480625A612268136823F4EF
:100BAC00806313602046FFF76BFC2046FFF737FF8E
:100BBC00C4E700BF0000FFFF704708B5C26A90F899
:100BCC003D30DBB2212B00D008BD438D9BB263B10D
:100BDC00426A036812781A61436A01334362438D97
:100BEC009BB2013B9BB24385EEE7082A04D0202A36
:100BFC0002D012F5803F19D10268536823F4E063E8
:100C0C0053600268136843F400731360002303639A
:100C1C00202380F83D3090F83E30DBB2402B15D0CD
:100C2C00002380F83E30FFF7F8FECDE702685368EA
:100C3C0023F4E063536011230363002380F83E30F8
:100C4C00202380F83D30FFF7E8FEBDE7002380F855
:100C5C003E30FFF7B1FFB7E708B590F83D30026DB5
:100C6C009AB9C36C012B08D0836CC3F307230268B9
:100C7C001361036D0133036508BD836C0268DBB23D
:100C8C001361036D02330365F6E7DBB2026D012AD3
:100C9C0023D0026D022A3ED1222B26D0428D92B255
:100CAC000AB1212B2AD0428D92B2002AE4D1212BF9
:100CBC00E2D10268536823F4E0635360026813685E
:100CCC0043F40073136000230363202280F83D205B
:100CDC0080F83E30FFF770FFCEE7836C0268DBB222
:100CEC001361036D01330365C6E70268136843F4AF
:100CFC0080731360036D01330365BDE7426A0368BB
:100D0C0012781A61436A01334362438D9BB2013BF3
:100D1C009BB24385B0E7FFF7B3FBADE710B590F896
:100D2C003D30DBB290F83E20D2B2C46A018D09B9D5
:100D3C00212B04D0212B3BD0402A37D010BD082CBE
:100D4C0004D0202C02D014F5803F19D102685368CE
:100D5C0023F4E06353600268136843F40073136078
:100D6C0000230363202380F83D3090F83E30DBB243
:100D7C00402B15D0002380F83E30FFF74EFEDDE708
:100D8C000268536823F4E063536011230363002368
:100D9C0080F83E30202380F83D30FFF73EFECDE753
:100DAC00002380F83E30FFF707FFC7E7222BC5D1A1
:100DBC00438D9BB22BB90268536823F48063536054
:100DCC00BCE790F83E30DBB2402B0CD0426A036893
:100DDC0012781A61436A01334362438D9BB2013B23
:100DEC009BB24385AAE7FFF737FFA7E7704708B523
:100DFC00C26A438D9BB2042B14D0438D9BB2032B40
:100E0C0022D0438D9BB2022B39D003681A69436AF6
:100E1C001A70436A01334362438D9BB2013B9BB210
:100E2C00438510E00268536823F4806353600368C1
:100E3C001A69436A1A70436A01334362438D9BB249
:100E4C00013B9BB2438508BD01684B6823F480636A
:100E5C004B60042A06D0022A04D00268136823F4DB
:100E6C008063136003681A69436A1A70436A01331A
:100E7C004362438D9BB2013B9BB24385E3E7012A5E
:100E8C000BD0102A09D0042A3AD0022A38D0016893
:100E9C000B6843F400730B6004E001680B6823F4E7
:100EAC0080630B6003681969436A1970416A4B1CB3
:100EBC004362438D9BB2013B9BB2438503681B6924
:100ECC004B70436A01334362438D9BB2013B9BB22F
:100EDC00438501684B6823F440734B60202380F8F2
:100EEC003D3090F83E30DBB2402B0FD0002380F821
:100EFC003E30082A11D0202A0FD0122303630EE0B3
:100F0C0001680B6843F480630B60CBE7002380F827
:100F1C003E300363FFF76AFF95E700230363FFF797
:100F2C007DFD90E7704738B590F83D30DBB2222B51
:100F3C0000D038BD0446C56A438D9BB2032B15D92E
:100F4C0003681A69436A1A70436A01334362438D1A
:100F5C009BB2013B9BB24385438D9BB2032BE8D1E3
:100F6C000268536823F480635360E2E7C26A022A82
:100F7C0001D0012B05D92268536823F48063536098
:100F8C00D7E7FFF719FC002835D12268136823F442
:100F9C00806313602268536823F4E0635360236812
:100FAC001A69636A1A70636A01336362638D9BB258
:100FBC00013B9BB26385202384F83D3094F83E308E
:100FCC00DBB2402B09D0002384F83E30082D0CD026
:100FDC00202D0AD01223236309E0002384F83E302D
:100FEC0023632046FFF702FFA3E700232363204679
:100FFC00FFF714FD9DE72268536823F4E063536008
:10100C0023681A69636A1A70636A01336362638DB9
:10101C009BB2013B9BB26385202384F83D300023B7
:10102C0084F83E302046FFF77DFF82E770470000D2
:10103C0000B583B000230193406A90F83D20D2B2F2
:10104C00324B1B68DB083249A1FB03131B0A03EB71
:10105C008303C3EBC3030193019B43B1019B013B8E
:10106C00019303681B6813F4007FF5D103E0036C54
:10107C0043F020030364436B0BB100219962836B33
:10108C000BB10021996201680B6823F480630B603B
:10109C0000234385436B0BB100215963836B0BB168
:1010AC000021596301680B6823F001030B6090F871
:1010BC003D30DBB2602B0ED002F02802282A14D06F
:1010CC00202380F83D30002380F83E30FFF72AFFC4
:1010DC0003B05DF804FB202380F83D30002380F83A
:1010EC003E300364FFF7A2FFF2E70268136843F097
:1010FC00010313600268136843F4806313600023D8
:10110C000363282380F83D30E0E700BF080000208F
:10111C0089B5F81410B5044690F83D30DBB290F860
:10112C003E20D2B2102A36D0402A34D003F0280206
:10113C00282A38D02268526812F4006F07D1602B2D
:10114C0005D0202384F83D30002384F83E30002362
:10115C00236323685A6812F4006F48D05A6822F44B
:10116C0000625A60626B92F82130DBB2012B20D006
:10117C00444B5363606B00F0F7FE002849D02268A3
:10118C00136823F001031360202384F83D30606B57
:10119C00436B98473DE0222BC8D121680A6822F4A2
:1011AC0000620A60C2E700232363282384F83D30E1
:1011BC00CFE7A36B334A5A63A06B00F0D5FE40B364
:1011CC0023685A6912F0400F05D01A69636A1A70C5
:1011DC00636A013363622268136823F001031360AE
:1011EC00202384F83D30A06B436B984711E094F8B2
:1011FC003D20D2B2602A1FD05A6912F0400F05D0A0
:10120C001A69636A1A70636A013363622046FFF7D6
:10121C0089FE236C13F00F0F04D02268536823F45B
:10122C00E063536094F83D30DBB2226C12F0040F93
:10123C0001D0282B18D010BD202284F83D2000228C
:10124C0022645A6912F0400F05D01A69636A1A7049
:10125C00636A013363622268136823F0010313602D
:10126C002046FFF7E3FED4E7074BE362002323633A
:10127C00202284F83D2084F83E302046FFF74BFCBA
:10128C00D9E700BF3D1000080000FFFF30B583B068
:10129C00044690F83D50EDB20268536823F4E063C5
:1012AC0053600023019303685A6901921A6842F053
:1012BC0001021A60019B0268136823F480631360B7
:1012CC0003685A6812F4006F38D0222D21D02A2DD1
:1012DC001FD0426B1268526892B24285428D92B214
:1012EC001AB1026C42F0040202645A6822F40062E1
:1012FC005A60606B00F084FE01281FD0636B444A77
:10130C005A63606B00F030FEC0B1606B436B984762
:10131C0014E0A26B1268526892B26285628D92B22E
:10132C001AB1226C42F0040222645A6822F4006260
:10133C005A60A06B00F064FE012842D1638D9BB211
:10134C0033B323685A6912F0040F0AD01A69636A1E
:10135C001A70636A01336362638D9BB2013B9BB26B
:10136C00638523685A6912F0400F0AD01A69636AC0
:10137C001A70636A01336362638D9BB2013B9BB24B
:10138C006385638D9BB21BB1236C43F00403236410
:10139C00236C13BB2A2D25D094F83D30DBB2282BBF
:1013AC0029D0236B222B01D0222D19D100232363AA
:1013BC00202284F83D2084F83E302046FFF756FB6F
:1013CC000EE0A36B124A5A63A06B00F0CDFD00280F
:1013DC00B4D0A06B436B9847B0E72046FFF79AFE5A
:1013EC0003B030BD00232363282384F83D3020460E
:1013FC00FFF73CFBD0E7074BE3620023236320227B
:10140C0084F83D2084F83E302046FFF784FBE7E764
:10141C003D1000080000FFFFF8B50446026855684F
:10142C00C66A90F83E30DBB290F83D10C8B2102B73
:10143C0013D0402B11D0236C002B7AD05369002190
:10144C0013F0020F78D015F4007F75D0236C03B124
:10145C0091692046FFF732FBF8BDD2F818C05169EC
:10146C0011F0010705D1B6F52A0FF5D0B6F12A4FC8
:10147C00F2D017B115F4007F29D111F0080F02D06A
:10148C0015F4007F2AD111F0020F02D015F4007F61
:10149C0028D11CF0040F31D0526812F4006FDBD14C
:1014AC0011F0800F05D015F4806F02D011F0040FED
:1014BC001CD011F0040FCFD015F4007FCCD0212814
:1014CC0018D0402BC8D12046FFF7C6FBC4E72046F6
:1014DC00FFF796F92046FEF7DBFFBDE72046FFF746
:1014EC002BF8B9E72046FFF73CF8B5E72046FFF7A5
:1014FC0015FCB1E72046FFF760FBADE7536813F42A
:10150C00006FA9D111F0400F05D015F4806F02D0F7
:10151C0011F0040F09D011F0040F9DD015F4007FC9
:10152C009AD02046FFF763FC96E72046FFF7FBFCBA
:10153C0092E79169536983E713F0100F02D015F409
:10154C00007F18D121281AD0292818D013F0400F69
:10155C0005D015F4806F02D013F0040F28D013F0CF
:10156C00040F3FF479AF15F4007F3FF475AF2046BC
:10157C00FFF712F970E72046FFF788FE6CE713F0CF
:10158C00800F05D015F4806F02D013F0040F0BD030
:10159C0013F0040F3FF460AF15F4007F3FF45CAF21
:1015AC002046FFF7E9F857E72046FFF739FA53E7EB
:1015BC002046FFF75CFA4FE7F8B5044603685D690F
:1015CC005F6890F83E20D2B215F4807F0CD017F4EF
:1015DC00807F41D06FF48071596101680B6843F4CE
:1015EC0000430B60012600E0002615F4007F08D0B4
:1015FC0017F4807F05D046F0020623686FF4007163
:10160C00596115F4806F19D017F4807F16D0638D53
:10161C0099B294F83D30DBB2206B202A1ED023689F
:10162C006FF48061596146F00406102A01D0402AFB
:10163C0004D12268136843F40073136015F4006F2F
:10164C0008D017F4807F05D046F0080623686FF4A5
:10165C0000625A6186B9F8BD0026C6E70029DED1C2
:10166C00212B05D0292B03D0282BD8D12128D6D13A
:10167C002046FFF751FAE1E7236C1E43266420460F
:10168C00FFF748FDE7E7000010B504460E4B18784D
:10169C004FF47A73B3FBF0F30C4A1068B0FBF3F021
:1016AC0000F00AFD68B90F2C01D901200AE00022D4
:1016BC0021464FF0FF3000F0B9FC054B1C600020B8
:1016CC0000E0012010BD00BF000000200800002039
:1016DC000400002008B5074A136843F01003136098
:1016EC00032000F091FC0F20FFF7CEFFFEF7A6FEC3
:1016FC00002008BD00200240034A1168034B1B78F0
:10170C000B441360704700BF7C00002000000020D9
:10171C00014B1868704700BF7C00002082B0084B5A
:10172C001B68084AA2FB03235B0A00FB03F301932B
:10173C0000BF019B5A1E0192002BF9D102B07047D9
:10174C0008000020D34D6210002800F0F18170B524
:10175C0082B00446036813F0010F2CD0994B5B68E0
:10176C0003F00C03042B1DD0964B5B6803F00C03A9
:10177C00082B12D06368B3F5803F41D0002B55D1B4
:10178C0003F1804303F504331A6822F480321A60A3
:10179C001A6822F480221A6037E08A4B5B6813F4D3
:1017AC00803FE7D0874B1B6813F4003F03D063687E
:1017BC00002B00F0BF81236813F0020F75D0814B12
:1017CC005B6813F00C0F5FD07E4B5B6803F00C036F
:1017DC00082B54D02369002B00F08A807A4B01220D
:1017EC001A60FFF795FF0546764B1B6813F0020F46
:1017FC0075D1FFF78DFF401B0228F5D903209EE120
:10180C00704A136843F480331360636843B3FFF783
:10181C007FFF05466B4B1B6813F4003FCBD1FFF7E2
:10182C0077FF401B6428F5D9032088E1B3F5A02F7E
:10183C0009D0644B1A6822F480321A601A6822F4B8
:10184C0080221A60E1E703F18043A3F53C331A6868
:10185C0042F480221A601A6842F480321A60D4E78B
:10186C00FFF756FF0546574B1B6813F4003FA2D0F9
:10187C00FFF74EFF401B6428F5D903205FE1514B65
:10188C005B6813F4803FA5D14E4B1B6813F0020F1D
:10189C0003D02369012B40F04F814A4A136823F08F
:1018AC00F803616943EAC1031360236813F0080F5E
:1018BC0033D0A369002B5CD0434B0122C3F88024A6
:1018CC00FFF726FF05463F4B5B6A13F0020F21D151
:1018DC00FFF71EFF401B0228F5D903202FE1394AE0
:1018EC00136823F0F803616943EAC1031360DCE772
:1018FC00354B00221A60FFF70BFF0546314B1B6876
:10190C0013F0020FD1D0FFF703FF401B0228F5D9CB
:10191C00032014E10120FFF701FF236813F0040FEB
:10192C0000F09680274BDB6913F0805F34D1254B98
:10193C00DA6942F08052DA61DB6903F0805301937B
:10194C00019B0125214B1B6813F4807F26D0E36893
:10195C00012B3DD0002B53D103F1804303F504330D
:10196C001A6A22F001021A621A6A22F004021A623E
:10197C0033E0154B0022C3F88024FFF7C9FE05465F
:10198C00104B5B6A13F0020FC7D0FFF7C1FE401B70
:10199C000228F5D90320D2E00025D3E70B4A1368BF
:1019AC0043F480731360FFF7B3FE0646074B1B68C6
:1019BC0013F4807FCBD1FFF7ABFE801B6428F5D9E5
:1019CC000320BCE0001002400000424200700040C6
:1019DC005F4A136A43F001031362E36833B3FFF702
:1019EC0097FE06465A4B1B6A13F0020F2FD1FFF7D6
:1019FC008FFE801B41F288339842F3D903209EE07E
:101A0C00052B09D0524B1A6A22F001021A621A6A8B
:101A1C0022F004021A62E0E74D4B1A6A42F004020B
:101A2C001A621A6A42F001021A62D6E7FFF770FED8
:101A3C000646474B1B6A13F0020F08D0FFF768FEEF
:101A4C00801B41F288339842F3D9032077E0E5B943
:101A5C00E369002B72D03E4A526802F00C02082A4D
:101A6C0056D0022B17D03B4B00221A66FFF750FEC4
:101A7C000446374B1B6813F0007F47D0FFF748FE36
:101A8C00001B0228F5D9032059E0314AD36923F011
:101A9C008053D361DCE72F4B00221A66FFF738FE28
:101AAC0005462B4B1B6813F0007F06D0FFF730FE6A
:101ABC00401B0228F5D9032041E0236AB3F5803F8F
:101ACC001AD023494B6823F47413226A606A0243C8
:101ADC0013434B601F4B01221A66FFF719FE044695
:101AEC001B4B1B6813F0007F0ED1FFF711FE001B80
:101AFC000228F5D9032022E0154A536823F4003359
:101B0C00A1680B435360DCE7002018E0002016E0CE
:101B1C00012B16D00E4B5B6803F48031226A914284
:101B2C0011D103F47013626A93420ED1002006E0C7
:101B3C0001207047012002E0012000E0002002B0EB
:101B4C0070BD0120FBE70120F9E70120F7E700BF9A
:101B5C0000100240000042420F4B5B6803F00C0285
:101B6C00082A01D00D487047C3F383420C49885CA6
:101B7C0013F4803F0BD0084B5B68C3F34043094A16
:101B8C00D35C064A02FB00F0B0FBF3F07047064B47
:101B9C0003FB00F0704700BF0010024000127A00F7
:101BAC00542100086421000800093D00002800F0C1
:101BBC00A08070B50D460446524B1B6803F007031A
:101BCC008B420BD24F4A136823F007030B4313606D
:101BDC00136803F007038B4240F08D80236813F0E9
:101BEC00020F17D013F0040F04D0474A536843F484
:101BFC00E0635360236813F0080F04D0424A536823
:101C0C0043F460535360404A536823F0F003A168D7
:101C1C000B435360236813F0010F31D06368012B21
:101C2C0020D0022B25D0384A126812F0020F64D053
:101C3C0035494A6822F0030213434B60FFF768FDF5
:101C4C000646314B5B6803F00C036268B3EB820F02
:101C5C0016D0FFF75DFD801B41F288339842F0D916
:101C6C00032045E0284A126812F4003FE0D101201D
:101C7C003EE0254A126812F0007FD9D1012037E0EE
:101C8C00204B1B6803F00703AB420AD91D4A1368AB
:101C9C0023F007032B431360136803F00703AB42D5
:101CAC002DD1236813F0040F06D0174A536823F480
:101CBC00E063E1680B435360236813F0080F07D00F
:101CCC00114A536823F46053216943EAC1035360FA
:101CDC00FFF742FF0C4B5B68C3F303130B4AD35C57
:101CEC00D8400B4B18600B4B1868FFF7CDFC00204D
:101CFC0070BD012070470120FAE70120F8E70120B0
:101D0C00F6E700BF002002400010024068210008E6
:101D1C000800002004000020014B1868704700BF29
:101D2C000800002008B5FFF7F7FF044B5B68C3F30E
:101D3C000223034AD35CD84008BD00BF0010024008
:101D4C007821000870B582B00024A446A6E0804D2E
:101D5C00AA4210D007D97F4DAA420CD005F5803588
:101D6C00AA4208D013E0A5F58015AA4203D005F5C8
:101D7C007025AA4207D18A68002A58D0012A51D06E
:101D8C004361082403E0A5F58015AA42F3D0BEF107
:101D9C00FF0F4ED80646BEF1FF0F4CD84FEA8C020F
:101DAC0033680F25954023EA050304FA02F2134326
:101DBC0033604B6813F0805F6ED0674B9A6942F0CA
:101DCC0001029A619B6903F001030193019B4FEAA5
:101DDC009C02951C614B53F825600CF003039D008D
:101DEC000F23AB4026EA03065D4B984229D003F53E
:101DFC008063984200F08E8003F58063984200F077
:101E0C008B8003F58063984219D004231AE0CC68C8
:101E1C00BDE7CC680434BAE7CC680834B7E7CC68C3
:101E2C000C34B4E703610824B1E70024AFE70424C1
:101E3C00ADE7061DAFE7ACF108029200B0E7032353
:101E4C0000E00023AB4033430232444D45F82230CE
:101E5C004B6813F4801F61D0424A936843EA0E0327
:101E6C0093604B6813F4001F5ED03E4AD36843EA7C
:101E7C000E03D3604B6813F4003F5BD0394A5368B0
:101E8C0043EA0E0353604B6813F4803F58D0354A35
:101E9C00136843EA0E0313600CF1010C0A6832FA62
:101EAC000CF353D0012303FA0CF302EA030E33EACA
:101EBC000202F1D14A68122A3FF649AF122A3FF6C4
:101ECC0066AF01A555F822F0831D00081B1E000803
:101EDC00251E0008371E00089B1D00089B1D0008CE
:101EEC009B1D00089B1D00089B1D00089B1D0008E6
:101EFC009B1D00089B1D00089B1D00089B1D0008D6
:101F0C009B1D00089B1D00089B1D00081F1E000840
:101F1C002B1E0008012395E7022393E7114A9368CF
:101F2C0023EA0E0393609CE70E4AD36823EA0E0360
:101F3C00D3609FE70B4A536823EA0E035360A2E772
:101F4C00084A136823EA0E031360A5E702B070BDBC
:101F5C00000022100000311000100240000001406F
:101F6C00000801400004014008B590F82130DBB2B4
:101F7C00022B03D004238363012008BD026813687D
:101F8C0023F00E0313600268136823F0010313603F
:101F9C000368194A934214D0143293421FD014325E
:101FAC0093421ED0143293421ED0143293421ED050
:101FBC001432934202D04FF0807203E04FF480123F
:101FCC0000E001220D4B5A60012380F821300023E0
:101FDC0080F82030436B6BB198470020CDE710227E
:101FEC00F0E74FF48072EDE74FF48052EAE74FF4DC
:101FFC008032E7E70020C0E7080002400000024002
:10200C0090F8210070470000074AD36823F4E0637E
:10201C001B041B0C000200F4E060034343F0BF639D
:10202C0043F40033D360704700ED00E000B5194B6A
:10203C00DB68C3F30223C3F1070CBCF1040F28BF08
:10204C004FF0040C03F1040EBEF1060F18D9033B3C
:10205C004FF0FF3E0EFA0CFC21EA0C0199400EFAEF
:10206C0003F322EA0303194300280BDB0901C9B26D
:10207C0000F1604000F5614080F800135DF804FB4E
:10208C000023E5E700F00F000901C9B2024B195417
:10209C00F4E700BF00ED00E014ED00E0002807DBE2
:1020AC0000F01F02400901239340024A42F82030FD
:1020BC00704700BF00E100E00138B0F1807F0BD227
:1020CC004FF0E0235861054AF02182F823100020DC
:1020DC00986107221A6170470120704700ED00E0FB
:1020EC0070470000FFF7FCFF0B480C490C4A00231B
:1020FC0002E0D458C4500433C4188C42F9D3094AB2
:10210C00094C002301E013600432A242FBD3FEF71A
:10211C003BF8FEF7E3F87047000000200C000020AD
:10212C00882100080C00002080000020FEE7000041
:10213C00F8B500BFF8BC08BC9E467047F8B500BFA8
:08214C00F8BC08BC9E46704778
:1021540002030405060708090A0B0C0D0E0F1010E4
:10216400010200000000000000000000010203045E
:0C21740006070809000000000102030437
:0421800075010008DD
:042184004D01000801
:0C218800010000001000000000127A00AE
:04000005080020F1DE
:00000001FF
